{
  "contractName": "HelperContract",
  "abi": [
    {
      "constant": true,
      "inputs": [
        {
          "internalType": "string",
          "name": "",
          "type": "string"
        }
      ],
      "name": "helperMasterContractList",
      "outputs": [
        {
          "internalType": "string",
          "name": "helpUserId",
          "type": "string"
        },
        {
          "internalType": "string",
          "name": "localAddress",
          "type": "string"
        },
        {
          "internalType": "string",
          "name": "reliefDetails",
          "type": "string"
        },
        {
          "internalType": "string",
          "name": "reliefPhotoHash",
          "type": "string"
        }
      ],
      "payable": false,
      "stateMutability": "view",
      "type": "function"
    },
    {
      "constant": false,
      "inputs": [
        {
          "internalType": "string",
          "name": "_reliefRequestId",
          "type": "string"
        },
        {
          "internalType": "string",
          "name": "_helpUserId",
          "type": "string"
        },
        {
          "internalType": "string",
          "name": "_localAddress",
          "type": "string"
        },
        {
          "internalType": "string",
          "name": "_reliefDetails",
          "type": "string"
        },
        {
          "internalType": "string",
          "name": "_reliefPhotoHash",
          "type": "string"
        }
      ],
      "name": "saveReliefHelperInfo",
      "outputs": [],
      "payable": false,
      "stateMutability": "nonpayable",
      "type": "function"
    },
    {
      "constant": true,
      "inputs": [],
      "name": "getAllReliefHelpersCount",
      "outputs": [
        {
          "internalType": "uint256",
          "name": "",
          "type": "uint256"
        }
      ],
      "payable": false,
      "stateMutability": "view",
      "type": "function"
    }
  ],
  "bytecode": "0x608060405234801561001057600080fd5b50610b46806100206000396000f3fe608060405234801561001057600080fd5b50600436106100415760003560e01c8063a1aa40e014610046578063d7840e801461035d578063eccfd0c8146105d5575b600080fd5b61035b600480360360a081101561005c57600080fd5b810190808035906020019064010000000081111561007957600080fd5b82018360208201111561008b57600080fd5b803590602001918460018302840111640100000000831117156100ad57600080fd5b91908080601f016020809104026020016040519081016040528093929190818152602001838380828437600081840152601f19601f8201169050808301925050505050505091929192908035906020019064010000000081111561011057600080fd5b82018360208201111561012257600080fd5b8035906020019184600183028401116401000000008311171561014457600080fd5b91908080601f016020809104026020016040519081016040528093929190818152602001838380828437600081840152601f19601f820116905080830192505050505050509192919290803590602001906401000000008111156101a757600080fd5b8201836020820111156101b957600080fd5b803590602001918460018302840111640100000000831117156101db57600080fd5b91908080601f016020809104026020016040519081016040528093929190818152602001838380828437600081840152601f19601f8201169050808301925050505050505091929192908035906020019064010000000081111561023e57600080fd5b82018360208201111561025057600080fd5b8035906020019184600183028401116401000000008311171561027257600080fd5b91908080601f016020809104026020016040519081016040528093929190818152602001838380828437600081840152601f19601f820116905080830192505050505050509192919290803590602001906401000000008111156102d557600080fd5b8201836020820111156102e757600080fd5b8035906020019184600183028401116401000000008311171561030957600080fd5b91908080601f016020809104026020016040519081016040528093929190818152602001838380828437600081840152601f19601f8201169050808301925050505050505091929192905050506105f3565b005b6104166004803603602081101561037357600080fd5b810190808035906020019064010000000081111561039057600080fd5b8201836020820111156103a257600080fd5b803590602001918460018302840111640100000000831117156103c457600080fd5b91908080601f016020809104026020016040519081016040528093929190818152602001838380828437600081840152601f19601f82011690508083019250505050505050919291929050505061073a565b6040518080602001806020018060200180602001858103855289818151815260200191508051906020019080838360005b83811015610462578082015181840152602081019050610447565b50505050905090810190601f16801561048f5780820380516001836020036101000a031916815260200191505b50858103845288818151815260200191508051906020019080838360005b838110156104c85780820151818401526020810190506104ad565b50505050905090810190601f1680156104f55780820380516001836020036101000a031916815260200191505b50858103835287818151815260200191508051906020019080838360005b8381101561052e578082015181840152602081019050610513565b50505050905090810190601f16801561055b5780820380516001836020036101000a031916815260200191505b50858103825286818151815260200191508051906020019080838360005b83811015610594578082015181840152602081019050610579565b50505050905090810190601f1680156105c15780820380516001836020036101000a031916815260200191505b509850505050505050505060405180910390f35b6105dd6109e0565b6040518082815260200191505060405180910390f35b6040518060800160405280858152602001848152602001838152602001828152506001866040518082805190602001908083835b6020831061064a5780518252602082019150602081019050602083039250610627565b6001836020036101000a038019825116818451168082178552505050505050905001915050908152602001604051809103902060008201518160000190805190602001906106999291906109ec565b5060208201518160010190805190602001906106b69291906109ec565b5060408201518160020190805190602001906106d39291906109ec565b5060608201518160030190805190602001906106f09291906109ec565b509050506000859080600181540180825580915050906001820390600052602060002001600090919290919091509080519060200190610731929190610a6c565b50505050505050565b600181805160208101820180518482526020830160208501208183528095505050505050600091509050806000018054600181600116156101000203166002900480601f0160208091040260200160405190810160405280929190818152602001828054600181600116156101000203166002900480156107fc5780601f106107d1576101008083540402835291602001916107fc565b820191906000526020600020905b8154815290600101906020018083116107df57829003601f168201915b505050505090806001018054600181600116156101000203166002900480601f01602080910402602001604051908101604052809291908181526020018280546001816001161561010002031660029004801561089a5780601f1061086f5761010080835404028352916020019161089a565b820191906000526020600020905b81548152906001019060200180831161087d57829003601f168201915b505050505090806002018054600181600116156101000203166002900480601f0160208091040260200160405190810160405280929190818152602001828054600181600116156101000203166002900480156109385780601f1061090d57610100808354040283529160200191610938565b820191906000526020600020905b81548152906001019060200180831161091b57829003601f168201915b505050505090806003018054600181600116156101000203166002900480601f0160208091040260200160405190810160405280929190818152602001828054600181600116156101000203166002900480156109d65780601f106109ab576101008083540402835291602001916109d6565b820191906000526020600020905b8154815290600101906020018083116109b957829003601f168201915b5050505050905084565b60008080549050905090565b828054600181600116156101000203166002900490600052602060002090601f016020900481019282601f10610a2d57805160ff1916838001178555610a5b565b82800160010185558215610a5b579182015b82811115610a5a578251825591602001919060010190610a3f565b5b509050610a689190610aec565b5090565b828054600181600116156101000203166002900490600052602060002090601f016020900481019282601f10610aad57805160ff1916838001178555610adb565b82800160010185558215610adb579182015b82811115610ada578251825591602001919060010190610abf565b5b509050610ae89190610aec565b5090565b610b0e91905b80821115610b0a576000816000905550600101610af2565b5090565b9056fea265627a7a72315820876174187fc02154f1b6bbb63f741cce7fa12bf6d470611a5ad1d3ecc65e8e4b64736f6c63430005100032",
  "source": "// SPDX-License-Identifier: MIT\r\npragma solidity >=0.4.22 <0.9.0;\r\n\r\ncontract HelperContract {\r\n    struct HelperMasterContract {\r\n        string helpUserId;\r\n        string localAddress;\r\n        string reliefDetails;\r\n        string reliefPhotoHash;\r\n    }\r\n\r\n    string[] helperMasterContractIds;\r\n\r\n    mapping(string => HelperMasterContract) public helperMasterContractList;\r\n\r\n    function saveReliefHelperInfo(\r\n        string memory _reliefRequestId,\r\n        string memory _helpUserId,\r\n        string memory _localAddress,\r\n        string memory _reliefDetails,\r\n        string memory _reliefPhotoHash\r\n    ) public {\r\n        helperMasterContractList[_reliefRequestId] = HelperMasterContract(\r\n            _helpUserId,\r\n            _localAddress,\r\n            _reliefDetails,\r\n            _reliefPhotoHash\r\n        );\r\n        helperMasterContractIds.push(_reliefRequestId);\r\n    }\r\n\r\n    function getAllReliefHelpersCount() public view returns (uint256) {\r\n        return helperMasterContractIds.length;\r\n    }\r\n}\r\n",
  "sourcePath": "D:/IDEALABS-CODEBASE/HACKATHON-1/smart-contract/contracts/HelperContract.sol",
  "compiler": {
    "name": "solc",
    "version": "0.5.16+commit.9c3226ce.Emscripten.clang"
  },
  "schemaVersion": "3.3.4",
  "updatedAt": "2021-03-27T04:49:09.922Z",
  "devdoc": {
    "methods": {}
  },
  "userdoc": {
    "methods": {}
  }
}