{
  "contractName": "ReliefRequest",
  "abi": [
    {
      "constant": true,
      "inputs": [
        {
          "internalType": "string",
          "name": "",
          "type": "string"
        }
      ],
      "name": "reliefRequestMasterList",
      "outputs": [
        {
          "internalType": "string",
          "name": "userId",
          "type": "string"
        },
        {
          "internalType": "string",
          "name": "userMappedId",
          "type": "string"
        },
        {
          "internalType": "string",
          "name": "status",
          "type": "string"
        }
      ],
      "payable": false,
      "stateMutability": "view",
      "type": "function"
    },
    {
      "constant": false,
      "inputs": [
        {
          "internalType": "string",
          "name": "_requestId",
          "type": "string"
        },
        {
          "internalType": "string",
          "name": "_userId",
          "type": "string"
        },
        {
          "internalType": "string",
          "name": "_userMappedId",
          "type": "string"
        },
        {
          "internalType": "string",
          "name": "_status",
          "type": "string"
        }
      ],
      "name": "saveReliefRequest",
      "outputs": [],
      "payable": false,
      "stateMutability": "nonpayable",
      "type": "function"
    },
    {
      "constant": true,
      "inputs": [],
      "name": "getReliefRequestCount",
      "outputs": [
        {
          "internalType": "uint256",
          "name": "",
          "type": "uint256"
        }
      ],
      "payable": false,
      "stateMutability": "view",
      "type": "function"
    },
    {
      "constant": true,
      "inputs": [
        {
          "internalType": "string",
          "name": "_requestId",
          "type": "string"
        }
      ],
      "name": "checkIsRequestValid",
      "outputs": [
        {
          "internalType": "bool",
          "name": "",
          "type": "bool"
        }
      ],
      "payable": false,
      "stateMutability": "view",
      "type": "function"
    },
    {
      "constant": false,
      "inputs": [
        {
          "internalType": "string",
          "name": "_id",
          "type": "string"
        },
        {
          "internalType": "string",
          "name": "status",
          "type": "string"
        },
        {
          "internalType": "string",
          "name": "mapepdUserId",
          "type": "string"
        }
      ],
      "name": "updateStatusAndMappedUser",
      "outputs": [],
      "payable": false,
      "stateMutability": "nonpayable",
      "type": "function"
    }
  ],
  "bytecode": "0x608060405234801561001057600080fd5b50610e84806100206000396000f3fe608060405234801561001057600080fd5b50600436106100575760003560e01c8063370b24241461005c5780636900ed1d146102455780637125144d14610318578063af72fc8e14610336578063dd75dc8814610542575b600080fd5b6102436004803603606081101561007257600080fd5b810190808035906020019064010000000081111561008f57600080fd5b8201836020820111156100a157600080fd5b803590602001918460018302840111640100000000831117156100c357600080fd5b91908080601f016020809104026020016040519081016040528093929190818152602001838380828437600081840152601f19601f8201169050808301925050505050505091929192908035906020019064010000000081111561012657600080fd5b82018360208201111561013857600080fd5b8035906020019184600183028401116401000000008311171561015a57600080fd5b91908080601f016020809104026020016040519081016040528093929190818152602001838380828437600081840152601f19601f820116905080830192505050505050509192919290803590602001906401000000008111156101bd57600080fd5b8201836020820111156101cf57600080fd5b803590602001918460018302840111640100000000831117156101f157600080fd5b91908080601f016020809104026020016040519081016040528093929190818152602001838380828437600081840152601f19601f8201169050808301925050505050505091929192905050506107c2565b005b6102fe6004803603602081101561025b57600080fd5b810190808035906020019064010000000081111561027857600080fd5b82018360208201111561028a57600080fd5b803590602001918460018302840111640100000000831117156102ac57600080fd5b91908080601f016020809104026020016040519081016040528093929190818152602001838380828437600081840152601f19601f8201169050808301925050505050505091929192905050506108c9565b604051808215151515815260200191505060405180910390f35b6103206109f3565b6040518082815260200191505060405180910390f35b6103ef6004803603602081101561034c57600080fd5b810190808035906020019064010000000081111561036957600080fd5b82018360208201111561037b57600080fd5b8035906020019184600183028401116401000000008311171561039d57600080fd5b91908080601f016020809104026020016040519081016040528093929190818152602001838380828437600081840152601f19601f8201169050808301925050505050505091929192905050506109ff565b60405180806020018060200180602001848103845287818151815260200191508051906020019080838360005b8381101561043757808201518184015260208101905061041c565b50505050905090810190601f1680156104645780820380516001836020036101000a031916815260200191505b50848103835286818151815260200191508051906020019080838360005b8381101561049d578082015181840152602081019050610482565b50505050905090810190601f1680156104ca5780820380516001836020036101000a031916815260200191505b50848103825285818151815260200191508051906020019080838360005b838110156105035780820151818401526020810190506104e8565b50505050905090810190601f1680156105305780820380516001836020036101000a031916815260200191505b50965050505050505060405180910390f35b6107c06004803603608081101561055857600080fd5b810190808035906020019064010000000081111561057557600080fd5b82018360208201111561058757600080fd5b803590602001918460018302840111640100000000831117156105a957600080fd5b91908080601f016020809104026020016040519081016040528093929190818152602001838380828437600081840152601f19601f8201169050808301925050505050505091929192908035906020019064010000000081111561060c57600080fd5b82018360208201111561061e57600080fd5b8035906020019184600183028401116401000000008311171561064057600080fd5b91908080601f016020809104026020016040519081016040528093929190818152602001838380828437600081840152601f19601f820116905080830192505050505050509192919290803590602001906401000000008111156106a357600080fd5b8201836020820111156106b557600080fd5b803590602001918460018302840111640100000000831117156106d757600080fd5b91908080601f016020809104026020016040519081016040528093929190818152602001838380828437600081840152601f19601f8201169050808301925050505050505091929192908035906020019064010000000081111561073a57600080fd5b82018360208201111561074c57600080fd5b8035906020019184600183028401116401000000008311171561076e57600080fd5b91908080601f016020809104026020016040519081016040528093929190818152602001838380828437600081840152601f19601f820116905080830192505050505050509192919290505050610c07565b005b806001846040518082805190602001908083835b602083106107f957805182526020820191506020810190506020830392506107d6565b6001836020036101000a03801982511681845116808217855250505050505090500191505090815260200160405180910390206001019080519060200190610842929190610d2a565b50816001846040518082805190602001908083835b6020831061087a5780518252602082019150602081019050602083039250610857565b6001836020036101000a038019825116818451168082178552505050505050905001915050908152602001604051809103902060020190805190602001906108c3929190610d2a565b50505050565b600060606001836040518082805190602001908083835b6020831061090357805182526020820191506020810190506020830392506108e0565b6001836020036101000a03801982511681845116808217855250505050505090500191505090815260200160405180910390206000018054600181600116156101000203166002900480601f0160208091040260200160405190810160405280929190818152602001828054600181600116156101000203166002900480156109cd5780601f106109a2576101008083540402835291602001916109cd565b820191906000526020600020905b8154815290600101906020018083116109b057829003601f168201915b505050505090506000815111156109e85760019150506109ee565b60009150505b919050565b60008080549050905090565b600181805160208101820180518482526020830160208501208183528095505050505050600091509050806000018054600181600116156101000203166002900480601f016020809104026020016040519081016040528092919081815260200182805460018160011615610100020316600290048015610ac15780601f10610a9657610100808354040283529160200191610ac1565b820191906000526020600020905b815481529060010190602001808311610aa457829003601f168201915b505050505090806001018054600181600116156101000203166002900480601f016020809104026020016040519081016040528092919081815260200182805460018160011615610100020316600290048015610b5f5780601f10610b3457610100808354040283529160200191610b5f565b820191906000526020600020905b815481529060010190602001808311610b4257829003601f168201915b505050505090806002018054600181600116156101000203166002900480601f016020809104026020016040519081016040528092919081815260200182805460018160011615610100020316600290048015610bfd5780601f10610bd257610100808354040283529160200191610bfd565b820191906000526020600020905b815481529060010190602001808311610be057829003601f168201915b5050505050905083565b6040518060600160405280848152602001838152602001828152506001856040518082805190602001908083835b60208310610c585780518252602082019150602081019050602083039250610c35565b6001836020036101000a03801982511681845116808217855250505050505090500191505090815260200160405180910390206000820151816000019080519060200190610ca7929190610daa565b506020820151816001019080519060200190610cc4929190610daa565b506040820151816002019080519060200190610ce1929190610daa565b509050506000849080600181540180825580915050906001820390600052602060002001600090919290919091509080519060200190610d22929190610d2a565b505050505050565b828054600181600116156101000203166002900490600052602060002090601f016020900481019282601f10610d6b57805160ff1916838001178555610d99565b82800160010185558215610d99579182015b82811115610d98578251825591602001919060010190610d7d565b5b509050610da69190610e2a565b5090565b828054600181600116156101000203166002900490600052602060002090601f016020900481019282601f10610deb57805160ff1916838001178555610e19565b82800160010185558215610e19579182015b82811115610e18578251825591602001919060010190610dfd565b5b509050610e269190610e2a565b5090565b610e4c91905b80821115610e48576000816000905550600101610e30565b5090565b9056fea265627a7a723158205b293099de80be3656a349d376a9b43174c8159d5484ad8bcd7585fc9580bcda64736f6c63430005100032",
  "source": "// SPDX-License-Identifier: MIT\r\npragma solidity >=0.4.22 <0.9.0;\r\n\r\ncontract ReliefRequest {\r\n    struct ReliefRequestMaster {\r\n        string userId;\r\n        string userMappedId;\r\n        string status;\r\n    }\r\n\r\n    string[] reliefRequestIds;\r\n\r\n    mapping(string => ReliefRequestMaster) public reliefRequestMasterList;\r\n\r\n    function saveReliefRequest(\r\n        string memory _requestId,\r\n        string memory _userId,\r\n        string memory _userMappedId,\r\n        string memory _status\r\n    ) public {\r\n        reliefRequestMasterList[_requestId] = ReliefRequestMaster(\r\n            _userId,\r\n            _userMappedId,\r\n            _status\r\n        );\r\n\r\n        reliefRequestIds.push(_requestId);\r\n    }\r\n\r\n    function getReliefRequestCount() public view returns (uint256) {\r\n        return reliefRequestIds.length;\r\n    }\r\n\r\n    function checkIsRequestValid(string memory _requestId)\r\n        public\r\n        view\r\n        returns (bool)\r\n    {\r\n        string memory userId = reliefRequestMasterList[_requestId].userId;\r\n\r\n        if (bytes(userId).length > 0) {\r\n            return true;\r\n        } else {\r\n            return false;\r\n        }\r\n    }\r\n\r\n    function updateStatusAndMappedUser(\r\n        string memory _id,\r\n        string memory status,\r\n        string memory mapepdUserId\r\n    ) public {\r\n        reliefRequestMasterList[_id].userMappedId = mapepdUserId;\r\n        reliefRequestMasterList[_id].status = status;\r\n    }\r\n\r\n    \r\n}\r\n",
  "sourcePath": "D:/IDEALABS-CODEBASE/HACKATHON-1/smart-contract/contracts/ReliefRequest.sol",
  "compiler": {
    "name": "solc",
    "version": "0.5.16+commit.9c3226ce.Emscripten.clang"
  },
  "schemaVersion": "3.3.4",
  "updatedAt": "2021-03-26T21:06:17.676Z",
  "networkType": "ethereum",
  "devdoc": {
    "methods": {}
  },
  "userdoc": {
    "methods": {}
  }
}