{
  "contractName": "ReliefRequest",
  "abi": [
    {
      "constant": true,
      "inputs": [
        {
          "internalType": "string",
          "name": "",
          "type": "string"
        }
      ],
      "name": "reliefRequestMasterList",
      "outputs": [
        {
          "internalType": "string",
          "name": "userId",
          "type": "string"
        },
        {
          "internalType": "string",
          "name": "userMappedId",
          "type": "string"
        },
        {
          "internalType": "string",
          "name": "status",
          "type": "string"
        }
      ],
      "payable": false,
      "stateMutability": "view",
      "type": "function"
    },
    {
      "constant": false,
      "inputs": [
        {
          "internalType": "string",
          "name": "_requestId",
          "type": "string"
        },
        {
          "internalType": "string",
          "name": "_userId",
          "type": "string"
        },
        {
          "internalType": "string",
          "name": "_userMappedId",
          "type": "string"
        },
        {
          "internalType": "string",
          "name": "_status",
          "type": "string"
        }
      ],
      "name": "saveReliefRequest",
      "outputs": [],
      "payable": false,
      "stateMutability": "nonpayable",
      "type": "function"
    },
    {
      "constant": true,
      "inputs": [],
      "name": "getReliefRequestCount",
      "outputs": [
        {
          "internalType": "uint256",
          "name": "",
          "type": "uint256"
        }
      ],
      "payable": false,
      "stateMutability": "view",
      "type": "function"
    }
  ],
  "bytecode": "0x608060405234801561001057600080fd5b50610981806100206000396000f3fe608060405234801561001057600080fd5b50600436106100415760003560e01c80637125144d14610046578063af72fc8e14610064578063dd75dc8814610270575b600080fd5b61004e6104f0565b6040518082815260200191505060405180910390f35b61011d6004803603602081101561007a57600080fd5b810190808035906020019064010000000081111561009757600080fd5b8201836020820111156100a957600080fd5b803590602001918460018302840111640100000000831117156100cb57600080fd5b91908080601f016020809104026020016040519081016040528093929190818152602001838380828437600081840152601f19601f8201169050808301925050505050505091929192905050506104fc565b60405180806020018060200180602001848103845287818151815260200191508051906020019080838360005b8381101561016557808201518184015260208101905061014a565b50505050905090810190601f1680156101925780820380516001836020036101000a031916815260200191505b50848103835286818151815260200191508051906020019080838360005b838110156101cb5780820151818401526020810190506101b0565b50505050905090810190601f1680156101f85780820380516001836020036101000a031916815260200191505b50848103825285818151815260200191508051906020019080838360005b83811015610231578082015181840152602081019050610216565b50505050905090810190601f16801561025e5780820380516001836020036101000a031916815260200191505b50965050505050505060405180910390f35b6104ee6004803603608081101561028657600080fd5b81019080803590602001906401000000008111156102a357600080fd5b8201836020820111156102b557600080fd5b803590602001918460018302840111640100000000831117156102d757600080fd5b91908080601f016020809104026020016040519081016040528093929190818152602001838380828437600081840152601f19601f8201169050808301925050505050505091929192908035906020019064010000000081111561033a57600080fd5b82018360208201111561034c57600080fd5b8035906020019184600183028401116401000000008311171561036e57600080fd5b91908080601f016020809104026020016040519081016040528093929190818152602001838380828437600081840152601f19601f820116905080830192505050505050509192919290803590602001906401000000008111156103d157600080fd5b8201836020820111156103e357600080fd5b8035906020019184600183028401116401000000008311171561040557600080fd5b91908080601f016020809104026020016040519081016040528093929190818152602001838380828437600081840152601f19601f8201169050808301925050505050505091929192908035906020019064010000000081111561046857600080fd5b82018360208201111561047a57600080fd5b8035906020019184600183028401116401000000008311171561049c57600080fd5b91908080601f016020809104026020016040519081016040528093929190818152602001838380828437600081840152601f19601f820116905080830192505050505050509192919290505050610704565b005b60008080549050905090565b600181805160208101820180518482526020830160208501208183528095505050505050600091509050806000018054600181600116156101000203166002900480601f0160208091040260200160405190810160405280929190818152602001828054600181600116156101000203166002900480156105be5780601f10610593576101008083540402835291602001916105be565b820191906000526020600020905b8154815290600101906020018083116105a157829003601f168201915b505050505090806001018054600181600116156101000203166002900480601f01602080910402602001604051908101604052809291908181526020018280546001816001161561010002031660029004801561065c5780601f106106315761010080835404028352916020019161065c565b820191906000526020600020905b81548152906001019060200180831161063f57829003601f168201915b505050505090806002018054600181600116156101000203166002900480601f0160208091040260200160405190810160405280929190818152602001828054600181600116156101000203166002900480156106fa5780601f106106cf576101008083540402835291602001916106fa565b820191906000526020600020905b8154815290600101906020018083116106dd57829003601f168201915b5050505050905083565b6040518060600160405280848152602001838152602001828152506001856040518082805190602001908083835b602083106107555780518252602082019150602081019050602083039250610732565b6001836020036101000a038019825116818451168082178552505050505050905001915050908152602001604051809103902060008201518160000190805190602001906107a4929190610827565b5060208201518160010190805190602001906107c1929190610827565b5060408201518160020190805190602001906107de929190610827565b50905050600084908060018154018082558091505090600182039060005260206000200160009091929091909150908051906020019061081f9291906108a7565b505050505050565b828054600181600116156101000203166002900490600052602060002090601f016020900481019282601f1061086857805160ff1916838001178555610896565b82800160010185558215610896579182015b8281111561089557825182559160200191906001019061087a565b5b5090506108a39190610927565b5090565b828054600181600116156101000203166002900490600052602060002090601f016020900481019282601f106108e857805160ff1916838001178555610916565b82800160010185558215610916579182015b828111156109155782518255916020019190600101906108fa565b5b5090506109239190610927565b5090565b61094991905b8082111561094557600081600090555060010161092d565b5090565b9056fea265627a7a72315820e538dd3f4b21b2b6440ff024a84496d32e6bf4242bf3cb5a60a89e6da7f6f83b64736f6c63430005100032",
  "source": "// SPDX-License-Identifier: MIT\r\npragma solidity >=0.4.22 <0.9.0;\r\n\r\ncontract ReliefRequest {\r\n    struct ReliefRequestMaster {\r\n        string userId;\r\n        string userMappedId;\r\n        string status;\r\n    }\r\n\r\n    string[] reliefRequestIds;\r\n\r\n    mapping(string => ReliefRequestMaster) public reliefRequestMasterList;\r\n\r\n    function saveReliefRequest(\r\n        string memory _requestId,\r\n        string memory _userId,\r\n        string memory _userMappedId,\r\n        string memory _status\r\n    ) public {\r\n        reliefRequestMasterList[_requestId] = ReliefRequestMaster(\r\n            _userId,\r\n            _userMappedId,\r\n            _status\r\n        );\r\n\r\n        reliefRequestIds.push(_requestId);\r\n    }\r\n\r\n    function getReliefRequestCount() public view returns (uint256) {\r\n        return reliefRequestIds.length;\r\n    }\r\n}\r\n",
  "sourcePath": "D:/IDEALABS-CODEBASE/HACKATHON-1/smart-contract/contracts/ReliefRequest.sol",
  "compiler": {
    "name": "solc",
    "version": "0.5.16+commit.9c3226ce.Emscripten.clang"
  },
  "schemaVersion": "3.3.4",
  "updatedAt": "2021-03-26T13:15:20.829Z",
  "networkType": "ethereum",
  "devdoc": {
    "methods": {}
  },
  "userdoc": {
    "methods": {}
  }
}