{
  "contractName": "NgoRegistration",
  "abi": [
    {
      "constant": true,
      "inputs": [
        {
          "internalType": "string",
          "name": "",
          "type": "string"
        }
      ],
      "name": "ngoMasterRegistrationList",
      "outputs": [
        {
          "internalType": "string",
          "name": "name",
          "type": "string"
        },
        {
          "internalType": "string",
          "name": "state",
          "type": "string"
        },
        {
          "internalType": "string",
          "name": "district",
          "type": "string"
        },
        {
          "internalType": "string",
          "name": "phoneNumber",
          "type": "string"
        },
        {
          "internalType": "string",
          "name": "emailAddress",
          "type": "string"
        },
        {
          "internalType": "string",
          "name": "establishedDate",
          "type": "string"
        }
      ],
      "payable": false,
      "stateMutability": "view",
      "type": "function"
    },
    {
      "constant": false,
      "inputs": [
        {
          "internalType": "string",
          "name": "_userMasterId",
          "type": "string"
        },
        {
          "internalType": "string",
          "name": "_name",
          "type": "string"
        },
        {
          "internalType": "string",
          "name": "_state",
          "type": "string"
        },
        {
          "internalType": "string",
          "name": "_district",
          "type": "string"
        },
        {
          "internalType": "string",
          "name": "phoneNumber",
          "type": "string"
        },
        {
          "internalType": "string",
          "name": "_emailAddress",
          "type": "string"
        },
        {
          "internalType": "string",
          "name": "_establishedDate",
          "type": "string"
        }
      ],
      "name": "saveUserRegistrationDetails",
      "outputs": [],
      "payable": false,
      "stateMutability": "nonpayable",
      "type": "function"
    }
  ],
  "bytecode": "0x608060405234801561001057600080fd5b50610e9b806100206000396000f3fe608060405234801561001057600080fd5b50600436106100365760003560e01c80636ed17d451461003b578063ef8b051b1461038b575b600080fd5b6100f46004803603602081101561005157600080fd5b810190808035906020019064010000000081111561006e57600080fd5b82018360208201111561008057600080fd5b803590602001918460018302840111640100000000831117156100a257600080fd5b91908080601f016020809104026020016040519081016040528093929190818152602001838380828437600081840152601f19601f8201169050808301925050505050505091929192905050506107d0565b6040518080602001806020018060200180602001806020018060200187810387528d818151815260200191508051906020019080838360005b8381101561014857808201518184015260208101905061012d565b50505050905090810190601f1680156101755780820380516001836020036101000a031916815260200191505b5087810386528c818151815260200191508051906020019080838360005b838110156101ae578082015181840152602081019050610193565b50505050905090810190601f1680156101db5780820380516001836020036101000a031916815260200191505b5087810385528b818151815260200191508051906020019080838360005b838110156102145780820151818401526020810190506101f9565b50505050905090810190601f1680156102415780820380516001836020036101000a031916815260200191505b5087810384528a818151815260200191508051906020019080838360005b8381101561027a57808201518184015260208101905061025f565b50505050905090810190601f1680156102a75780820380516001836020036101000a031916815260200191505b50878103835289818151815260200191508051906020019080838360005b838110156102e05780820151818401526020810190506102c5565b50505050905090810190601f16801561030d5780820380516001836020036101000a031916815260200191505b50878103825288818151815260200191508051906020019080838360005b8381101561034657808201518184015260208101905061032b565b50505050905090810190601f1680156103735780820380516001836020036101000a031916815260200191505b509c5050505050505050505050505060405180910390f35b6107ce600480360360e08110156103a157600080fd5b81019080803590602001906401000000008111156103be57600080fd5b8201836020820111156103d057600080fd5b803590602001918460018302840111640100000000831117156103f257600080fd5b91908080601f016020809104026020016040519081016040528093929190818152602001838380828437600081840152601f19601f8201169050808301925050505050505091929192908035906020019064010000000081111561045557600080fd5b82018360208201111561046757600080fd5b8035906020019184600183028401116401000000008311171561048957600080fd5b91908080601f016020809104026020016040519081016040528093929190818152602001838380828437600081840152601f19601f820116905080830192505050505050509192919290803590602001906401000000008111156104ec57600080fd5b8201836020820111156104fe57600080fd5b8035906020019184600183028401116401000000008311171561052057600080fd5b91908080601f016020809104026020016040519081016040528093929190818152602001838380828437600081840152601f19601f8201169050808301925050505050505091929192908035906020019064010000000081111561058357600080fd5b82018360208201111561059557600080fd5b803590602001918460018302840111640100000000831117156105b757600080fd5b91908080601f016020809104026020016040519081016040528093929190818152602001838380828437600081840152601f19601f8201169050808301925050505050505091929192908035906020019064010000000081111561061a57600080fd5b82018360208201111561062c57600080fd5b8035906020019184600183028401116401000000008311171561064e57600080fd5b91908080601f016020809104026020016040519081016040528093929190818152602001838380828437600081840152601f19601f820116905080830192505050505050509192919290803590602001906401000000008111156106b157600080fd5b8201836020820111156106c357600080fd5b803590602001918460018302840111640100000000831117156106e557600080fd5b91908080601f016020809104026020016040519081016040528093929190818152602001838380828437600081840152601f19601f8201169050808301925050505050505091929192908035906020019064010000000081111561074857600080fd5b82018360208201111561075a57600080fd5b8035906020019184600183028401116401000000008311171561077c57600080fd5b91908080601f016020809104026020016040519081016040528093929190818152602001838380828437600081840152601f19601f820116905080830192505050505050509192919290505050610bb2565b005b600181805160208101820180518482526020830160208501208183528095505050505050600091509050806000018054600181600116156101000203166002900480601f0160208091040260200160405190810160405280929190818152602001828054600181600116156101000203166002900480156108925780601f1061086757610100808354040283529160200191610892565b820191906000526020600020905b81548152906001019060200180831161087557829003601f168201915b505050505090806001018054600181600116156101000203166002900480601f0160208091040260200160405190810160405280929190818152602001828054600181600116156101000203166002900480156109305780601f1061090557610100808354040283529160200191610930565b820191906000526020600020905b81548152906001019060200180831161091357829003601f168201915b505050505090806002018054600181600116156101000203166002900480601f0160208091040260200160405190810160405280929190818152602001828054600181600116156101000203166002900480156109ce5780601f106109a3576101008083540402835291602001916109ce565b820191906000526020600020905b8154815290600101906020018083116109b157829003601f168201915b505050505090806003018054600181600116156101000203166002900480601f016020809104026020016040519081016040528092919081815260200182805460018160011615610100020316600290048015610a6c5780601f10610a4157610100808354040283529160200191610a6c565b820191906000526020600020905b815481529060010190602001808311610a4f57829003601f168201915b505050505090806004018054600181600116156101000203166002900480601f016020809104026020016040519081016040528092919081815260200182805460018160011615610100020316600290048015610b0a5780601f10610adf57610100808354040283529160200191610b0a565b820191906000526020600020905b815481529060010190602001808311610aed57829003601f168201915b505050505090806005018054600181600116156101000203166002900480601f016020809104026020016040519081016040528092919081815260200182805460018160011615610100020316600290048015610ba85780601f10610b7d57610100808354040283529160200191610ba8565b820191906000526020600020905b815481529060010190602001808311610b8b57829003601f168201915b5050505050905086565b6040518060c00160405280878152602001868152602001858152602001848152602001838152602001828152506001886040518082805190602001908083835b60208310610c155780518252602082019150602081019050602083039250610bf2565b6001836020036101000a03801982511681845116808217855250505050505090500191505090815260200160405180910390206000820151816000019080519060200190610c64929190610d41565b506020820151816001019080519060200190610c81929190610d41565b506040820151816002019080519060200190610c9e929190610d41565b506060820151816003019080519060200190610cbb929190610d41565b506080820151816004019080519060200190610cd8929190610d41565b5060a0820151816005019080519060200190610cf5929190610d41565b509050506000879080600181540180825580915050906001820390600052602060002001600090919290919091509080519060200190610d36929190610dc1565b505050505050505050565b828054600181600116156101000203166002900490600052602060002090601f016020900481019282601f10610d8257805160ff1916838001178555610db0565b82800160010185558215610db0579182015b82811115610daf578251825591602001919060010190610d94565b5b509050610dbd9190610e41565b5090565b828054600181600116156101000203166002900490600052602060002090601f016020900481019282601f10610e0257805160ff1916838001178555610e30565b82800160010185558215610e30579182015b82811115610e2f578251825591602001919060010190610e14565b5b509050610e3d9190610e41565b5090565b610e6391905b80821115610e5f576000816000905550600101610e47565b5090565b9056fea265627a7a72315820c1ac0fdd62ed3345e106bf37e72a7cfc8ee94591904fc1f47d5bb4f0a9e12fec64736f6c63430005100032",
  "source": "// SPDX-License-Identifier: MIT\r\npragma solidity >=0.4.22 <0.9.0;\r\n\r\ncontract NgoRegistration {\r\n    struct NgoMasterRegistration {\r\n        string name;\r\n        string state;\r\n        string district;\r\n        string phoneNumber;\r\n        string emailAddress;\r\n        string establishedDate;\r\n    }\r\n\r\n    string[] ngoMasterRegistrationIds;\r\n\r\n    mapping(string => NgoMasterRegistration) public ngoMasterRegistrationList;\r\n\r\n    function saveUserRegistrationDetails(\r\n        string memory _userMasterId,\r\n        string memory _name,\r\n        string memory _state,\r\n        string memory _district,\r\n        string memory phoneNumber,\r\n        string memory _emailAddress,\r\n        string memory _establishedDate\r\n    ) public {\r\n        ngoMasterRegistrationList[_userMasterId] = NgoMasterRegistration(\r\n            _name,\r\n            _state,\r\n            _district,\r\n            phoneNumber,\r\n            _emailAddress,\r\n            _establishedDate\r\n        );\r\n\r\n        ngoMasterRegistrationIds.push(_userMasterId);\r\n    }\r\n}\r\n",
  "sourcePath": "D:/IDEALABS-CODEBASE/HACKATHON-1/smart-contract/contracts/NgoRegistration.sol",
  "compiler": {
    "name": "solc",
    "version": "0.5.16+commit.9c3226ce.Emscripten.clang"
  },
  "schemaVersion": "3.3.4",
  "updatedAt": "2021-03-26T11:14:51.377Z",
  "networkType": "ethereum",
  "devdoc": {
    "methods": {}
  },
  "userdoc": {
    "methods": {}
  }
}