{
  "contractName": "ReliefRequest",
  "abi": [
    {
      "constant": true,
      "inputs": [
        {
          "internalType": "string",
          "name": "",
          "type": "string"
        }
      ],
      "name": "reliefRequestMasterList",
      "outputs": [
        {
          "internalType": "string",
          "name": "userId",
          "type": "string"
        },
        {
          "internalType": "string",
          "name": "userMappedId",
          "type": "string"
        },
        {
          "internalType": "string",
          "name": "status",
          "type": "string"
        },
        {
          "internalType": "string",
          "name": "helpGoodsPhotoHash",
          "type": "string"
        },
        {
          "internalType": "string",
          "name": "receivedGoodsPhotoHash",
          "type": "string"
        },
        {
          "internalType": "string",
          "name": "goodsReceivedDate",
          "type": "string"
        }
      ],
      "payable": false,
      "stateMutability": "view",
      "type": "function"
    },
    {
      "constant": false,
      "inputs": [
        {
          "internalType": "string",
          "name": "_requestId",
          "type": "string"
        },
        {
          "internalType": "string",
          "name": "_userId",
          "type": "string"
        },
        {
          "internalType": "string",
          "name": "_userMappedId",
          "type": "string"
        },
        {
          "internalType": "string",
          "name": "_status",
          "type": "string"
        }
      ],
      "name": "saveReliefRequest",
      "outputs": [],
      "payable": false,
      "stateMutability": "nonpayable",
      "type": "function"
    },
    {
      "constant": true,
      "inputs": [],
      "name": "getReliefRequestCount",
      "outputs": [
        {
          "internalType": "uint256",
          "name": "",
          "type": "uint256"
        }
      ],
      "payable": false,
      "stateMutability": "view",
      "type": "function"
    },
    {
      "constant": true,
      "inputs": [
        {
          "internalType": "string",
          "name": "_requestId",
          "type": "string"
        }
      ],
      "name": "checkIsRequestValid",
      "outputs": [
        {
          "internalType": "bool",
          "name": "",
          "type": "bool"
        }
      ],
      "payable": false,
      "stateMutability": "view",
      "type": "function"
    },
    {
      "constant": false,
      "inputs": [
        {
          "internalType": "string",
          "name": "_id",
          "type": "string"
        },
        {
          "internalType": "string",
          "name": "status",
          "type": "string"
        },
        {
          "internalType": "string",
          "name": "mapepdUserId",
          "type": "string"
        }
      ],
      "name": "updateStatusAndMappedUser",
      "outputs": [],
      "payable": false,
      "stateMutability": "nonpayable",
      "type": "function"
    },
    {
      "constant": false,
      "inputs": [
        {
          "internalType": "string",
          "name": "_id",
          "type": "string"
        },
        {
          "internalType": "string",
          "name": "status",
          "type": "string"
        },
        {
          "internalType": "string",
          "name": "mapepdUserId",
          "type": "string"
        },
        {
          "internalType": "string",
          "name": "helpGoodsPhotoHash",
          "type": "string"
        }
      ],
      "name": "updateStatusMappedHelperGoodsHash",
      "outputs": [],
      "payable": false,
      "stateMutability": "nonpayable",
      "type": "function"
    },
    {
      "constant": false,
      "inputs": [
        {
          "internalType": "string",
          "name": "_id",
          "type": "string"
        },
        {
          "internalType": "string",
          "name": "status",
          "type": "string"
        },
        {
          "internalType": "string",
          "name": "mapepdUserId",
          "type": "string"
        },
        {
          "internalType": "string",
          "name": "receivedGoodsPhotoHash",
          "type": "string"
        },
        {
          "internalType": "string",
          "name": "goodsReceivedDate",
          "type": "string"
        }
      ],
      "name": "updateStatusMappedReceiveGoodsHash",
      "outputs": [],
      "payable": false,
      "stateMutability": "nonpayable",
      "type": "function"
    }
  ],
  "bytecode": "0x608060405234801561001057600080fd5b50611b89806100206000396000f3fe608060405234801561001057600080fd5b506004361061007d5760003560e01c80637125144d1161005b5780637125144d14610655578063af72fc8e14610673578063dd75dc88146109c3578063f4067a6614610c435761007d565b8063370b2424146100825780636900ed1d1461026b5780636c7106ca1461033e575b600080fd5b6102696004803603606081101561009857600080fd5b81019080803590602001906401000000008111156100b557600080fd5b8201836020820111156100c757600080fd5b803590602001918460018302840111640100000000831117156100e957600080fd5b91908080601f016020809104026020016040519081016040528093929190818152602001838380828437600081840152601f19601f8201169050808301925050505050505091929192908035906020019064010000000081111561014c57600080fd5b82018360208201111561015e57600080fd5b8035906020019184600183028401116401000000008311171561018057600080fd5b91908080601f016020809104026020016040519081016040528093929190818152602001838380828437600081840152601f19601f820116905080830192505050505050509192919290803590602001906401000000008111156101e357600080fd5b8201836020820111156101f557600080fd5b8035906020019184600183028401116401000000008311171561021757600080fd5b91908080601f016020809104026020016040519081016040528093929190818152602001838380828437600081840152601f19601f820116905080830192505050505050509192919290505050610ec3565b005b6103246004803603602081101561028157600080fd5b810190808035906020019064010000000081111561029e57600080fd5b8201836020820111156102b057600080fd5b803590602001918460018302840111640100000000831117156102d257600080fd5b91908080601f016020809104026020016040519081016040528093929190818152602001838380828437600081840152601f19601f820116905080830192505050505050509192919290505050610fca565b604051808215151515815260200191505060405180910390f35b610653600480360360a081101561035457600080fd5b810190808035906020019064010000000081111561037157600080fd5b82018360208201111561038357600080fd5b803590602001918460018302840111640100000000831117156103a557600080fd5b91908080601f016020809104026020016040519081016040528093929190818152602001838380828437600081840152601f19601f8201169050808301925050505050505091929192908035906020019064010000000081111561040857600080fd5b82018360208201111561041a57600080fd5b8035906020019184600183028401116401000000008311171561043c57600080fd5b91908080601f016020809104026020016040519081016040528093929190818152602001838380828437600081840152601f19601f8201169050808301925050505050505091929192908035906020019064010000000081111561049f57600080fd5b8201836020820111156104b157600080fd5b803590602001918460018302840111640100000000831117156104d357600080fd5b91908080601f016020809104026020016040519081016040528093929190818152602001838380828437600081840152601f19601f8201169050808301925050505050505091929192908035906020019064010000000081111561053657600080fd5b82018360208201111561054857600080fd5b8035906020019184600183028401116401000000008311171561056a57600080fd5b91908080601f016020809104026020016040519081016040528093929190818152602001838380828437600081840152601f19601f820116905080830192505050505050509192919290803590602001906401000000008111156105cd57600080fd5b8201836020820111156105df57600080fd5b8035906020019184600183028401116401000000008311171561060157600080fd5b91908080601f016020809104026020016040519081016040528093929190818152602001838380828437600081840152601f19601f8201169050808301925050505050505091929192905050506110f4565b005b61065d6112ff565b6040518082815260200191505060405180910390f35b61072c6004803603602081101561068957600080fd5b81019080803590602001906401000000008111156106a657600080fd5b8201836020820111156106b857600080fd5b803590602001918460018302840111640100000000831117156106da57600080fd5b91908080601f016020809104026020016040519081016040528093929190818152602001838380828437600081840152601f19601f82011690508083019250505050505050919291929050505061130b565b6040518080602001806020018060200180602001806020018060200187810387528d818151815260200191508051906020019080838360005b83811015610780578082015181840152602081019050610765565b50505050905090810190601f1680156107ad5780820380516001836020036101000a031916815260200191505b5087810386528c818151815260200191508051906020019080838360005b838110156107e65780820151818401526020810190506107cb565b50505050905090810190601f1680156108135780820380516001836020036101000a031916815260200191505b5087810385528b818151815260200191508051906020019080838360005b8381101561084c578082015181840152602081019050610831565b50505050905090810190601f1680156108795780820380516001836020036101000a031916815260200191505b5087810384528a818151815260200191508051906020019080838360005b838110156108b2578082015181840152602081019050610897565b50505050905090810190601f1680156108df5780820380516001836020036101000a031916815260200191505b50878103835289818151815260200191508051906020019080838360005b838110156109185780820151818401526020810190506108fd565b50505050905090810190601f1680156109455780820380516001836020036101000a031916815260200191505b50878103825288818151815260200191508051906020019080838360005b8381101561097e578082015181840152602081019050610963565b50505050905090810190601f1680156109ab5780820380516001836020036101000a031916815260200191505b509c5050505050505050505050505060405180910390f35b610c41600480360360808110156109d957600080fd5b81019080803590602001906401000000008111156109f657600080fd5b820183602082011115610a0857600080fd5b80359060200191846001830284011164010000000083111715610a2a57600080fd5b91908080601f016020809104026020016040519081016040528093929190818152602001838380828437600081840152601f19601f82011690508083019250505050505050919291929080359060200190640100000000811115610a8d57600080fd5b820183602082011115610a9f57600080fd5b80359060200191846001830284011164010000000083111715610ac157600080fd5b91908080601f016020809104026020016040519081016040528093929190818152602001838380828437600081840152601f19601f82011690508083019250505050505050919291929080359060200190640100000000811115610b2457600080fd5b820183602082011115610b3657600080fd5b80359060200191846001830284011164010000000083111715610b5857600080fd5b91908080601f016020809104026020016040519081016040528093929190818152602001838380828437600081840152601f19601f82011690508083019250505050505050919291929080359060200190640100000000811115610bbb57600080fd5b820183602082011115610bcd57600080fd5b80359060200191846001830284011164010000000083111715610bef57600080fd5b91908080601f016020809104026020016040519081016040528093929190818152602001838380828437600081840152601f19601f8201169050808301925050505050505091929192905050506116ed565b005b610ec160048036036080811015610c5957600080fd5b8101908080359060200190640100000000811115610c7657600080fd5b820183602082011115610c8857600080fd5b80359060200191846001830284011164010000000083111715610caa57600080fd5b91908080601f016020809104026020016040519081016040528093929190818152602001838380828437600081840152601f19601f82011690508083019250505050505050919291929080359060200190640100000000811115610d0d57600080fd5b820183602082011115610d1f57600080fd5b80359060200191846001830284011164010000000083111715610d4157600080fd5b91908080601f016020809104026020016040519081016040528093929190818152602001838380828437600081840152601f19601f82011690508083019250505050505050919291929080359060200190640100000000811115610da457600080fd5b820183602082011115610db657600080fd5b80359060200191846001830284011164010000000083111715610dd857600080fd5b91908080601f016020809104026020016040519081016040528093929190818152602001838380828437600081840152601f19601f82011690508083019250505050505050919291929080359060200190640100000000811115610e3b57600080fd5b820183602082011115610e4d57600080fd5b80359060200191846001830284011164010000000083111715610e6f57600080fd5b91908080601f016020809104026020016040519081016040528093929190818152602001838380828437600081840152601f19601f8201169050808301925050505050505091929192905050506118a6565b005b806001846040518082805190602001908083835b60208310610efa5780518252602082019150602081019050602083039250610ed7565b6001836020036101000a03801982511681845116808217855250505050505090500191505090815260200160405180910390206001019080519060200190610f43929190611a2f565b50816001846040518082805190602001908083835b60208310610f7b5780518252602082019150602081019050602083039250610f58565b6001836020036101000a03801982511681845116808217855250505050505090500191505090815260200160405180910390206002019080519060200190610fc4929190611a2f565b50505050565b600060606001836040518082805190602001908083835b602083106110045780518252602082019150602081019050602083039250610fe1565b6001836020036101000a03801982511681845116808217855250505050505090500191505090815260200160405180910390206000018054600181600116156101000203166002900480601f0160208091040260200160405190810160405280929190818152602001828054600181600116156101000203166002900480156110ce5780601f106110a3576101008083540402835291602001916110ce565b820191906000526020600020905b8154815290600101906020018083116110b157829003601f168201915b505050505090506000815111156110e95760019150506110ef565b60009150505b919050565b826001866040518082805190602001908083835b6020831061112b5780518252602082019150602081019050602083039250611108565b6001836020036101000a03801982511681845116808217855250505050505090500191505090815260200160405180910390206001019080519060200190611174929190611a2f565b50836001866040518082805190602001908083835b602083106111ac5780518252602082019150602081019050602083039250611189565b6001836020036101000a038019825116818451168082178552505050505050905001915050908152602001604051809103902060020190805190602001906111f5929190611a2f565b50816001866040518082805190602001908083835b6020831061122d578051825260208201915060208101905060208303925061120a565b6001836020036101000a03801982511681845116808217855250505050505090500191505090815260200160405180910390206004019080519060200190611276929190611a2f565b50806001866040518082805190602001908083835b602083106112ae578051825260208201915060208101905060208303925061128b565b6001836020036101000a038019825116818451168082178552505050505050905001915050908152602001604051809103902060050190805190602001906112f7929190611a2f565b505050505050565b60008080549050905090565b600181805160208101820180518482526020830160208501208183528095505050505050600091509050806000018054600181600116156101000203166002900480601f0160208091040260200160405190810160405280929190818152602001828054600181600116156101000203166002900480156113cd5780601f106113a2576101008083540402835291602001916113cd565b820191906000526020600020905b8154815290600101906020018083116113b057829003601f168201915b505050505090806001018054600181600116156101000203166002900480601f01602080910402602001604051908101604052809291908181526020018280546001816001161561010002031660029004801561146b5780601f106114405761010080835404028352916020019161146b565b820191906000526020600020905b81548152906001019060200180831161144e57829003601f168201915b505050505090806002018054600181600116156101000203166002900480601f0160208091040260200160405190810160405280929190818152602001828054600181600116156101000203166002900480156115095780601f106114de57610100808354040283529160200191611509565b820191906000526020600020905b8154815290600101906020018083116114ec57829003601f168201915b505050505090806003018054600181600116156101000203166002900480601f0160208091040260200160405190810160405280929190818152602001828054600181600116156101000203166002900480156115a75780601f1061157c576101008083540402835291602001916115a7565b820191906000526020600020905b81548152906001019060200180831161158a57829003601f168201915b505050505090806004018054600181600116156101000203166002900480601f0160208091040260200160405190810160405280929190818152602001828054600181600116156101000203166002900480156116455780601f1061161a57610100808354040283529160200191611645565b820191906000526020600020905b81548152906001019060200180831161162857829003601f168201915b505050505090806005018054600181600116156101000203166002900480601f0160208091040260200160405190810160405280929190818152602001828054600181600116156101000203166002900480156116e35780601f106116b8576101008083540402835291602001916116e3565b820191906000526020600020905b8154815290600101906020018083116116c657829003601f168201915b5050505050905086565b6040518060c00160405280848152602001838152602001828152602001604051806020016040528060008152508152602001604051806020016040528060008152508152602001604051806020016040528060008152508152506001856040518082805190602001908083835b6020831061177d578051825260208201915060208101905060208303925061175a565b6001836020036101000a038019825116818451168082178552505050505050905001915050908152602001604051809103902060008201518160000190805190602001906117cc929190611aaf565b5060208201518160010190805190602001906117e9929190611aaf565b506040820151816002019080519060200190611806929190611aaf565b506060820151816003019080519060200190611823929190611aaf565b506080820151816004019080519060200190611840929190611aaf565b5060a082015181600501908051906020019061185d929190611aaf565b50905050600084908060018154018082558091505090600182039060005260206000200160009091929091909150908051906020019061189e929190611a2f565b505050505050565b816001856040518082805190602001908083835b602083106118dd57805182526020820191506020810190506020830392506118ba565b6001836020036101000a03801982511681845116808217855250505050505090500191505090815260200160405180910390206001019080519060200190611926929190611a2f565b50826001856040518082805190602001908083835b6020831061195e578051825260208201915060208101905060208303925061193b565b6001836020036101000a038019825116818451168082178552505050505050905001915050908152602001604051809103902060020190805190602001906119a7929190611a2f565b50806001856040518082805190602001908083835b602083106119df57805182526020820191506020810190506020830392506119bc565b6001836020036101000a03801982511681845116808217855250505050505090500191505090815260200160405180910390206003019080519060200190611a28929190611a2f565b5050505050565b828054600181600116156101000203166002900490600052602060002090601f016020900481019282601f10611a7057805160ff1916838001178555611a9e565b82800160010185558215611a9e579182015b82811115611a9d578251825591602001919060010190611a82565b5b509050611aab9190611b2f565b5090565b828054600181600116156101000203166002900490600052602060002090601f016020900481019282601f10611af057805160ff1916838001178555611b1e565b82800160010185558215611b1e579182015b82811115611b1d578251825591602001919060010190611b02565b5b509050611b2b9190611b2f565b5090565b611b5191905b80821115611b4d576000816000905550600101611b35565b5090565b9056fea265627a7a7231582099e7ab6528ab582fe1b132e705b174ef1405e4bcb57535cc88121d4705e135c764736f6c63430005100032",
  "source": "// SPDX-License-Identifier: MIT\r\npragma solidity >=0.4.22 <0.9.0;\r\n\r\ncontract ReliefRequest {\r\n    struct ReliefRequestMaster {\r\n        string userId;\r\n        string userMappedId;\r\n        string status;\r\n        string helpGoodsPhotoHash;\r\n        string receivedGoodsPhotoHash;\r\n        string goodsReceivedDate;\r\n    }\r\n\r\n    string[] reliefRequestIds;\r\n\r\n    mapping(string => ReliefRequestMaster) public reliefRequestMasterList;\r\n\r\n    function saveReliefRequest(\r\n        string memory _requestId,\r\n        string memory _userId,\r\n        string memory _userMappedId,\r\n        string memory _status\r\n    ) public {\r\n        reliefRequestMasterList[_requestId] = ReliefRequestMaster(\r\n            _userId,\r\n            _userMappedId,\r\n            _status,\r\n            \"\",\r\n            \"\",\r\n            \"\"\r\n        );\r\n\r\n        reliefRequestIds.push(_requestId);\r\n    }\r\n\r\n    function getReliefRequestCount() public view returns (uint256) {\r\n        return reliefRequestIds.length;\r\n    }\r\n\r\n    function checkIsRequestValid(string memory _requestId)\r\n        public\r\n        view\r\n        returns (bool)\r\n    {\r\n        string memory userId = reliefRequestMasterList[_requestId].userId;\r\n\r\n        if (bytes(userId).length > 0) {\r\n            return true;\r\n        } else {\r\n            return false;\r\n        }\r\n    }\r\n\r\n    function updateStatusAndMappedUser(\r\n        string memory _id,\r\n        string memory status,\r\n        string memory mapepdUserId\r\n    ) public {\r\n        reliefRequestMasterList[_id].userMappedId = mapepdUserId;\r\n        reliefRequestMasterList[_id].status = status;\r\n    }\r\n\r\n    function updateStatusMappedHelperGoodsHash(\r\n        string memory _id,\r\n        string memory status,\r\n        string memory mapepdUserId,\r\n        string memory helpGoodsPhotoHash\r\n    ) public {\r\n        reliefRequestMasterList[_id].userMappedId = mapepdUserId;\r\n        reliefRequestMasterList[_id].status = status;\r\n        reliefRequestMasterList[_id].helpGoodsPhotoHash = helpGoodsPhotoHash;\r\n    }\r\n\r\n    function updateStatusMappedReceiveGoodsHash(\r\n        string memory _id,\r\n        string memory status,\r\n        string memory mapepdUserId,\r\n        string memory receivedGoodsPhotoHash,\r\n        string memory goodsReceivedDate\r\n    ) public {\r\n        reliefRequestMasterList[_id].userMappedId = mapepdUserId;\r\n        reliefRequestMasterList[_id].status = status;\r\n        reliefRequestMasterList[_id]\r\n            .receivedGoodsPhotoHash = receivedGoodsPhotoHash;\r\n        reliefRequestMasterList[_id].goodsReceivedDate = goodsReceivedDate;\r\n    }\r\n}\r\n",
  "sourcePath": "D:/IDEALABS-CODEBASE/HACKATHON-1/smart-contract/contracts/ReliefRequest.sol",
  "compiler": {
    "name": "solc",
    "version": "0.5.16+commit.9c3226ce.Emscripten.clang"
  },
  "schemaVersion": "3.3.4",
  "updatedAt": "2021-03-27T09:01:55.310Z",
  "networkType": "ethereum",
  "devdoc": {
    "methods": {}
  },
  "userdoc": {
    "methods": {}
  }
}