{
  "contractName": "UserMaster",
  "abi": [
    {
      "constant": true,
      "inputs": [
        {
          "internalType": "string",
          "name": "",
          "type": "string"
        }
      ],
      "name": "userDetailsList",
      "outputs": [
        {
          "internalType": "string",
          "name": "username",
          "type": "string"
        },
        {
          "internalType": "string",
          "name": "role",
          "type": "string"
        },
        {
          "internalType": "bool",
          "name": "isRegistered",
          "type": "bool"
        }
      ],
      "payable": false,
      "stateMutability": "view",
      "type": "function"
    },
    {
      "constant": false,
      "inputs": [
        {
          "internalType": "string",
          "name": "_id",
          "type": "string"
        },
        {
          "internalType": "string",
          "name": "_username",
          "type": "string"
        },
        {
          "internalType": "string",
          "name": "_role",
          "type": "string"
        },
        {
          "internalType": "bool",
          "name": "_isRegistered",
          "type": "bool"
        }
      ],
      "name": "addUserDetails",
      "outputs": [
        {
          "internalType": "bool",
          "name": "",
          "type": "bool"
        }
      ],
      "payable": false,
      "stateMutability": "nonpayable",
      "type": "function"
    },
    {
      "constant": true,
      "inputs": [
        {
          "internalType": "string",
          "name": "_id",
          "type": "string"
        }
      ],
      "name": "checkIfUserisRegistered",
      "outputs": [
        {
          "internalType": "bool",
          "name": "",
          "type": "bool"
        }
      ],
      "payable": false,
      "stateMutability": "view",
      "type": "function"
    },
    {
      "constant": false,
      "inputs": [
        {
          "internalType": "string",
          "name": "_id",
          "type": "string"
        },
        {
          "internalType": "bool",
          "name": "isRegistered",
          "type": "bool"
        }
      ],
      "name": "updateisRegisteredData",
      "outputs": [],
      "payable": false,
      "stateMutability": "nonpayable",
      "type": "function"
    },
    {
      "constant": true,
      "inputs": [
        {
          "internalType": "string",
          "name": "_id",
          "type": "string"
        }
      ],
      "name": "getUserName",
      "outputs": [
        {
          "internalType": "string",
          "name": "",
          "type": "string"
        }
      ],
      "payable": false,
      "stateMutability": "view",
      "type": "function"
    },
    {
      "constant": true,
      "inputs": [],
      "name": "getUserCount",
      "outputs": [
        {
          "internalType": "uint256",
          "name": "",
          "type": "uint256"
        }
      ],
      "payable": false,
      "stateMutability": "view",
      "type": "function"
    }
  ],
  "bytecode": "0x608060405234801561001057600080fd5b50610d3c806100206000396000f3fe608060405234801561001057600080fd5b50600436106100625760003560e01c8063243c0938146100675780634858c25314610274578063664ca5ce1461033b5780637228c6e01461040e578063730f5eec14610542578063b5cb15f7146106ed575b600080fd5b61025a6004803603608081101561007d57600080fd5b810190808035906020019064010000000081111561009a57600080fd5b8201836020820111156100ac57600080fd5b803590602001918460018302840111640100000000831117156100ce57600080fd5b91908080601f016020809104026020016040519081016040528093929190818152602001838380828437600081840152601f19601f8201169050808301925050505050505091929192908035906020019064010000000081111561013157600080fd5b82018360208201111561014357600080fd5b8035906020019184600183028401116401000000008311171561016557600080fd5b91908080601f016020809104026020016040519081016040528093929190818152602001838380828437600081840152601f19601f820116905080830192505050505050509192919290803590602001906401000000008111156101c857600080fd5b8201836020820111156101da57600080fd5b803590602001918460018302840111640100000000831117156101fc57600080fd5b91908080601f016020809104026020016040519081016040528093929190818152602001838380828437600081840152601f19601f82011690508083019250505050505050919291929080351515906020019092919050505061070b565b604051808215151515815260200191505060405180910390f35b6103396004803603604081101561028a57600080fd5b81019080803590602001906401000000008111156102a757600080fd5b8201836020820111156102b957600080fd5b803590602001918460018302840111640100000000831117156102db57600080fd5b91908080601f016020809104026020016040519081016040528093929190818152602001838380828437600081840152601f19601f82011690508083019250505050505050919291929080351515906020019092919050505061083b565b005b6103f46004803603602081101561035157600080fd5b810190808035906020019064010000000081111561036e57600080fd5b82018360208201111561038057600080fd5b803590602001918460018302840111640100000000831117156103a257600080fd5b91908080601f016020809104026020016040519081016040528093929190818152602001838380828437600081840152601f19601f8201169050808301925050505050505091929192905050506108c3565b604051808215151515815260200191505060405180910390f35b6104c76004803603602081101561042457600080fd5b810190808035906020019064010000000081111561044157600080fd5b82018360208201111561045357600080fd5b8035906020019184600183028401116401000000008311171561047557600080fd5b91908080601f016020809104026020016040519081016040528093929190818152602001838380828437600081840152601f19601f82011690508083019250505050505050919291929050505061094b565b6040518080602001828103825283818151815260200191508051906020019080838360005b838110156105075780820151818401526020810190506104ec565b50505050905090810190601f1680156105345780820380516001836020036101000a031916815260200191505b509250505060405180910390f35b6105fb6004803603602081101561055857600080fd5b810190808035906020019064010000000081111561057557600080fd5b82018360208201111561058757600080fd5b803590602001918460018302840111640100000000831117156105a957600080fd5b91908080601f016020809104026020016040519081016040528093929190818152602001838380828437600081840152601f19601f820116905080830192505050505050509192919290505050610a59565b60405180806020018060200184151515158152602001838103835286818151815260200191508051906020019080838360005b8381101561064957808201518184015260208101905061062e565b50505050905090810190601f1680156106765780820380516001836020036101000a031916815260200191505b50838103825285818151815260200191508051906020019080838360005b838110156106af578082015181840152602081019050610694565b50505050905090810190601f1680156106dc5780820380516001836020036101000a031916815260200191505b509550505050505060405180910390f35b6106f5610bd6565b6040518082815260200191505060405180910390f35b600060405180606001604052808581526020018481526020018315158152506001866040518082805190602001908083835b60208310610760578051825260208201915060208101905060208303925061073d565b6001836020036101000a038019825116818451168082178552505050505050905001915050908152602001604051809103902060008201518160000190805190602001906107af929190610be2565b5060208201518160010190805190602001906107cc929190610be2565b5060408201518160020160006101000a81548160ff021916908315150217905550905050600085908060018154018082558091505090600182039060005260206000200160009091929091909150908051906020019061082d929190610c62565b505060019050949350505050565b806001836040518082805190602001908083835b60208310610872578051825260208201915060208101905060208303925061084f565b6001836020036101000a038019825116818451168082178552505050505050905001915050908152602001604051809103902060020160006101000a81548160ff0219169083151502179055505050565b6000806001836040518082805190602001908083835b602083106108fc57805182526020820191506020810190506020830392506108d9565b6001836020036101000a038019825116818451168082178552505050505050905001915050908152602001604051809103902060020160009054906101000a900460ff16905080915050919050565b60606001826040518082805190602001908083835b602083106109835780518252602082019150602081019050602083039250610960565b6001836020036101000a03801982511681845116808217855250505050505090500191505090815260200160405180910390206000018054600181600116156101000203166002900480601f016020809104026020016040519081016040528092919081815260200182805460018160011615610100020316600290048015610a4d5780601f10610a2257610100808354040283529160200191610a4d565b820191906000526020600020905b815481529060010190602001808311610a3057829003601f168201915b50505050509050919050565b600181805160208101820180518482526020830160208501208183528095505050505050600091509050806000018054600181600116156101000203166002900480601f016020809104026020016040519081016040528092919081815260200182805460018160011615610100020316600290048015610b1b5780601f10610af057610100808354040283529160200191610b1b565b820191906000526020600020905b815481529060010190602001808311610afe57829003601f168201915b505050505090806001018054600181600116156101000203166002900480601f016020809104026020016040519081016040528092919081815260200182805460018160011615610100020316600290048015610bb95780601f10610b8e57610100808354040283529160200191610bb9565b820191906000526020600020905b815481529060010190602001808311610b9c57829003601f168201915b5050505050908060020160009054906101000a900460ff16905083565b60008080549050905090565b828054600181600116156101000203166002900490600052602060002090601f016020900481019282601f10610c2357805160ff1916838001178555610c51565b82800160010185558215610c51579182015b82811115610c50578251825591602001919060010190610c35565b5b509050610c5e9190610ce2565b5090565b828054600181600116156101000203166002900490600052602060002090601f016020900481019282601f10610ca357805160ff1916838001178555610cd1565b82800160010185558215610cd1579182015b82811115610cd0578251825591602001919060010190610cb5565b5b509050610cde9190610ce2565b5090565b610d0491905b80821115610d00576000816000905550600101610ce8565b5090565b9056fea265627a7a7231582047b15a094953cbc9faae0e6dfa3ae73d5e1ffd875f65ee67b7e87bb3f2aa0f6564736f6c63430005100032",
  "source": "// SPDX-License-Identifier: MIT\r\npragma solidity >=0.4.22 <0.9.0;\r\n\r\ncontract UserMaster {\r\n    struct UserDetails {\r\n        string username;\r\n        string role;\r\n        bool isRegistered;\r\n    }\r\n\r\n    string[] usersList;\r\n\r\n    mapping(string => UserDetails) public userDetailsList;\r\n\r\n    function addUserDetails(\r\n        string memory _id,\r\n        string memory _username,\r\n        string memory _role,\r\n        bool _isRegistered\r\n    ) public returns (bool) {\r\n        userDetailsList[_id] = UserDetails(_username, _role, _isRegistered);\r\n        usersList.push(_id);\r\n\r\n        return true;\r\n    }\r\n\r\n    function checkIfUserisRegistered(string memory _id)\r\n        public\r\n        view\r\n        returns (bool)\r\n    {\r\n        bool isRegistered = userDetailsList[_id].isRegistered;\r\n        return isRegistered;\r\n    }\r\n\r\n    function updateisRegisteredData(string memory _id, bool isRegistered)\r\n        public\r\n    {\r\n        userDetailsList[_id].isRegistered = isRegistered;\r\n    }\r\n\r\n    function getUserName(string memory _id)\r\n        public\r\n        view\r\n        returns (string memory)\r\n    {\r\n        return userDetailsList[_id].username;\r\n    }\r\n\r\n    function getUserCount() public view returns (uint256) {\r\n        return usersList.length;\r\n    }\r\n}\r\n",
  "sourcePath": "D:/IDEALABS-CODEBASE/HACKATHON-1/smart-contract/contracts/UserMaster.sol",
  "compiler": {
    "name": "solc",
    "version": "0.5.16+commit.9c3226ce.Emscripten.clang"
  },
  "schemaVersion": "3.3.4",
  "updatedAt": "2021-03-26T11:14:50.410Z",
  "networkType": "ethereum",
  "devdoc": {
    "methods": {}
  },
  "userdoc": {
    "methods": {}
  }
}