{
  "contractName": "UserRegistration",
  "abi": [
    {
      "constant": true,
      "inputs": [
        {
          "internalType": "string",
          "name": "",
          "type": "string"
        }
      ],
      "name": "userMasterRegistrationList",
      "outputs": [
        {
          "internalType": "string",
          "name": "name",
          "type": "string"
        },
        {
          "internalType": "uint256",
          "name": "age",
          "type": "uint256"
        },
        {
          "internalType": "string",
          "name": "state",
          "type": "string"
        },
        {
          "internalType": "string",
          "name": "district",
          "type": "string"
        },
        {
          "internalType": "string",
          "name": "dob",
          "type": "string"
        },
        {
          "internalType": "string",
          "name": "phoneNumber",
          "type": "string"
        },
        {
          "internalType": "string",
          "name": "profession",
          "type": "string"
        }
      ],
      "payable": false,
      "stateMutability": "view",
      "type": "function"
    },
    {
      "constant": false,
      "inputs": [
        {
          "internalType": "string",
          "name": "_userMasterId",
          "type": "string"
        },
        {
          "internalType": "string",
          "name": "_name",
          "type": "string"
        },
        {
          "internalType": "uint256",
          "name": "_age",
          "type": "uint256"
        },
        {
          "internalType": "string",
          "name": "_state",
          "type": "string"
        },
        {
          "internalType": "string",
          "name": "_district",
          "type": "string"
        },
        {
          "internalType": "string",
          "name": "_dob",
          "type": "string"
        },
        {
          "internalType": "string",
          "name": "_phoneNumber",
          "type": "string"
        },
        {
          "internalType": "string",
          "name": "_profession",
          "type": "string"
        }
      ],
      "name": "saveUserRegistrationDetails",
      "outputs": [],
      "payable": false,
      "stateMutability": "nonpayable",
      "type": "function"
    },
    {
      "constant": true,
      "inputs": [
        {
          "internalType": "string",
          "name": "_userMasterId",
          "type": "string"
        }
      ],
      "name": "displayDetails",
      "outputs": [
        {
          "internalType": "string",
          "name": "",
          "type": "string"
        },
        {
          "internalType": "uint256",
          "name": "",
          "type": "uint256"
        },
        {
          "internalType": "string",
          "name": "",
          "type": "string"
        },
        {
          "internalType": "string",
          "name": "",
          "type": "string"
        },
        {
          "internalType": "string",
          "name": "",
          "type": "string"
        },
        {
          "internalType": "string",
          "name": "",
          "type": "string"
        },
        {
          "internalType": "string",
          "name": "",
          "type": "string"
        }
      ],
      "payable": false,
      "stateMutability": "view",
      "type": "function"
    }
  ],
  "bytecode": "0x608060405234801561001057600080fd5b506118e8806100206000396000f3fe608060405234801561001057600080fd5b50600436106100415760003560e01c806346c1544e1461004657806382172d1a14610496578063e79611b8146107ed575b600080fd5b610494600480360361010081101561005d57600080fd5b810190808035906020019064010000000081111561007a57600080fd5b82018360208201111561008c57600080fd5b803590602001918460018302840111640100000000831117156100ae57600080fd5b91908080601f016020809104026020016040519081016040528093929190818152602001838380828437600081840152601f19601f8201169050808301925050505050505091929192908035906020019064010000000081111561011157600080fd5b82018360208201111561012357600080fd5b8035906020019184600183028401116401000000008311171561014557600080fd5b91908080601f016020809104026020016040519081016040528093929190818152602001838380828437600081840152601f19601f82011690508083019250505050505050919291929080359060200190929190803590602001906401000000008111156101b257600080fd5b8201836020820111156101c457600080fd5b803590602001918460018302840111640100000000831117156101e657600080fd5b91908080601f016020809104026020016040519081016040528093929190818152602001838380828437600081840152601f19601f8201169050808301925050505050505091929192908035906020019064010000000081111561024957600080fd5b82018360208201111561025b57600080fd5b8035906020019184600183028401116401000000008311171561027d57600080fd5b91908080601f016020809104026020016040519081016040528093929190818152602001838380828437600081840152601f19601f820116905080830192505050505050509192919290803590602001906401000000008111156102e057600080fd5b8201836020820111156102f257600080fd5b8035906020019184600183028401116401000000008311171561031457600080fd5b91908080601f016020809104026020016040519081016040528093929190818152602001838380828437600081840152601f19601f8201169050808301925050505050505091929192908035906020019064010000000081111561037757600080fd5b82018360208201111561038957600080fd5b803590602001918460018302840111640100000000831117156103ab57600080fd5b91908080601f016020809104026020016040519081016040528093929190818152602001838380828437600081840152601f19601f8201169050808301925050505050505091929192908035906020019064010000000081111561040e57600080fd5b82018360208201111561042057600080fd5b8035906020019184600183028401116401000000008311171561044257600080fd5b91908080601f016020809104026020016040519081016040528093929190818152602001838380828437600081840152601f19601f820116905080830192505050505050509192919290505050610b44565b005b61054f600480360360208110156104ac57600080fd5b81019080803590602001906401000000008111156104c957600080fd5b8201836020820111156104db57600080fd5b803590602001918460018302840111640100000000831117156104fd57600080fd5b91908080601f016020809104026020016040519081016040528093929190818152602001838380828437600081840152601f19601f820116905080830192505050505050509192919290505050610ce4565b6040518080602001888152602001806020018060200180602001806020018060200187810387528e818151815260200191508051906020019080838360005b838110156105a957808201518184015260208101905061058e565b50505050905090810190601f1680156105d65780820380516001836020036101000a031916815260200191505b5087810386528c818151815260200191508051906020019080838360005b8381101561060f5780820151818401526020810190506105f4565b50505050905090810190601f16801561063c5780820380516001836020036101000a031916815260200191505b5087810385528b818151815260200191508051906020019080838360005b8381101561067557808201518184015260208101905061065a565b50505050905090810190601f1680156106a25780820380516001836020036101000a031916815260200191505b5087810384528a818151815260200191508051906020019080838360005b838110156106db5780820151818401526020810190506106c0565b50505050905090810190601f1680156107085780820380516001836020036101000a031916815260200191505b50878103835289818151815260200191508051906020019080838360005b83811015610741578082015181840152602081019050610726565b50505050905090810190601f16801561076e5780820380516001836020036101000a031916815260200191505b50878103825288818151815260200191508051906020019080838360005b838110156107a757808201518184015260208101905061078c565b50505050905090810190601f1680156107d45780820380516001836020036101000a031916815260200191505b509d505050505050505050505050505060405180910390f35b6108a66004803603602081101561080357600080fd5b810190808035906020019064010000000081111561082057600080fd5b82018360208201111561083257600080fd5b8035906020019184600183028401116401000000008311171561085457600080fd5b91908080601f016020809104026020016040519081016040528093929190818152602001838380828437600081840152601f19601f8201169050808301925050505050505091929192905050506113a6565b6040518080602001888152602001806020018060200180602001806020018060200187810387528e818151815260200191508051906020019080838360005b838110156109005780820151818401526020810190506108e5565b50505050905090810190601f16801561092d5780820380516001836020036101000a031916815260200191505b5087810386528c818151815260200191508051906020019080838360005b8381101561096657808201518184015260208101905061094b565b50505050905090810190601f1680156109935780820380516001836020036101000a031916815260200191505b5087810385528b818151815260200191508051906020019080838360005b838110156109cc5780820151818401526020810190506109b1565b50505050905090810190601f1680156109f95780820380516001836020036101000a031916815260200191505b5087810384528a818151815260200191508051906020019080838360005b83811015610a32578082015181840152602081019050610a17565b50505050905090810190601f168015610a5f5780820380516001836020036101000a031916815260200191505b50878103835289818151815260200191508051906020019080838360005b83811015610a98578082015181840152602081019050610a7d565b50505050905090810190601f168015610ac55780820380516001836020036101000a031916815260200191505b50878103825288818151815260200191508051906020019080838360005b83811015610afe578082015181840152602081019050610ae3565b50505050905090810190601f168015610b2b5780820380516001836020036101000a031916815260200191505b509d505050505050505050505050505060405180910390f35b6040518060e00160405280888152602001878152602001868152602001858152602001848152602001838152602001828152506001896040518082805190602001908083835b60208310610bad5780518252602082019150602081019050602083039250610b8a565b6001836020036101000a03801982511681845116808217855250505050505090500191505090815260200160405180910390206000820151816000019080519060200190610bfc92919061178e565b50602082015181600101556040820151816002019080519060200190610c2392919061178e565b506060820151816003019080519060200190610c4092919061178e565b506080820151816004019080519060200190610c5d92919061178e565b5060a0820151816005019080519060200190610c7a92919061178e565b5060c0820151816006019080519060200190610c9792919061178e565b509050506000889080600181540180825580915050906001820390600052602060002001600090919290919091509080519060200190610cd892919061180e565b50505050505050505050565b6060600060608060608060606001886040518082805190602001908083835b60208310610d265780518252602082019150602081019050602083039250610d03565b6001836020036101000a03801982511681845116808217855250505050505090500191505090815260200160405180910390206000016001896040518082805190602001908083835b60208310610d925780518252602082019150602081019050602083039250610d6f565b6001836020036101000a03801982511681845116808217855250505050505090500191505090815260200160405180910390206001015460018a6040518082805190602001908083835b60208310610dff5780518252602082019150602081019050602083039250610ddc565b6001836020036101000a038019825116818451168082178552505050505050905001915050908152602001604051809103902060020160018b6040518082805190602001908083835b60208310610e6b5780518252602082019150602081019050602083039250610e48565b6001836020036101000a038019825116818451168082178552505050505050905001915050908152602001604051809103902060030160018c6040518082805190602001908083835b60208310610ed75780518252602082019150602081019050602083039250610eb4565b6001836020036101000a038019825116818451168082178552505050505050905001915050908152602001604051809103902060040160018d6040518082805190602001908083835b60208310610f435780518252602082019150602081019050602083039250610f20565b6001836020036101000a038019825116818451168082178552505050505050905001915050908152602001604051809103902060050160018e6040518082805190602001908083835b60208310610faf5780518252602082019150602081019050602083039250610f8c565b6001836020036101000a0380198251168184511680821785525050505050509050019150509081526020016040518091039020600601868054600181600116156101000203166002900480601f01602080910402602001604051908101604052809291908181526020018280546001816001161561010002031660029004801561107a5780601f1061104f5761010080835404028352916020019161107a565b820191906000526020600020905b81548152906001019060200180831161105d57829003601f168201915b50505050509650848054600181600116156101000203166002900480601f0160208091040260200160405190810160405280929190818152602001828054600181600116156101000203166002900480156111165780601f106110eb57610100808354040283529160200191611116565b820191906000526020600020905b8154815290600101906020018083116110f957829003601f168201915b50505050509450838054600181600116156101000203166002900480601f0160208091040260200160405190810160405280929190818152602001828054600181600116156101000203166002900480156111b25780601f10611187576101008083540402835291602001916111b2565b820191906000526020600020905b81548152906001019060200180831161119557829003601f168201915b50505050509350828054600181600116156101000203166002900480601f01602080910402602001604051908101604052809291908181526020018280546001816001161561010002031660029004801561124e5780601f106112235761010080835404028352916020019161124e565b820191906000526020600020905b81548152906001019060200180831161123157829003601f168201915b50505050509250818054600181600116156101000203166002900480601f0160208091040260200160405190810160405280929190818152602001828054600181600116156101000203166002900480156112ea5780601f106112bf576101008083540402835291602001916112ea565b820191906000526020600020905b8154815290600101906020018083116112cd57829003601f168201915b50505050509150808054600181600116156101000203166002900480601f0160208091040260200160405190810160405280929190818152602001828054600181600116156101000203166002900480156113865780601f1061135b57610100808354040283529160200191611386565b820191906000526020600020905b81548152906001019060200180831161136957829003601f168201915b505050505090509650965096509650965096509650919395979092949650565b600181805160208101820180518482526020830160208501208183528095505050505050600091509050806000018054600181600116156101000203166002900480601f0160208091040260200160405190810160405280929190818152602001828054600181600116156101000203166002900480156114685780601f1061143d57610100808354040283529160200191611468565b820191906000526020600020905b81548152906001019060200180831161144b57829003601f168201915b505050505090806001015490806002018054600181600116156101000203166002900480601f01602080910402602001604051908101604052809291908181526020018280546001816001161561010002031660029004801561150c5780601f106114e15761010080835404028352916020019161150c565b820191906000526020600020905b8154815290600101906020018083116114ef57829003601f168201915b505050505090806003018054600181600116156101000203166002900480601f0160208091040260200160405190810160405280929190818152602001828054600181600116156101000203166002900480156115aa5780601f1061157f576101008083540402835291602001916115aa565b820191906000526020600020905b81548152906001019060200180831161158d57829003601f168201915b505050505090806004018054600181600116156101000203166002900480601f0160208091040260200160405190810160405280929190818152602001828054600181600116156101000203166002900480156116485780601f1061161d57610100808354040283529160200191611648565b820191906000526020600020905b81548152906001019060200180831161162b57829003601f168201915b505050505090806005018054600181600116156101000203166002900480601f0160208091040260200160405190810160405280929190818152602001828054600181600116156101000203166002900480156116e65780601f106116bb576101008083540402835291602001916116e6565b820191906000526020600020905b8154815290600101906020018083116116c957829003601f168201915b505050505090806006018054600181600116156101000203166002900480601f0160208091040260200160405190810160405280929190818152602001828054600181600116156101000203166002900480156117845780601f1061175957610100808354040283529160200191611784565b820191906000526020600020905b81548152906001019060200180831161176757829003601f168201915b5050505050905087565b828054600181600116156101000203166002900490600052602060002090601f016020900481019282601f106117cf57805160ff19168380011785556117fd565b828001600101855582156117fd579182015b828111156117fc5782518255916020019190600101906117e1565b5b50905061180a919061188e565b5090565b828054600181600116156101000203166002900490600052602060002090601f016020900481019282601f1061184f57805160ff191683800117855561187d565b8280016001018555821561187d579182015b8281111561187c578251825591602001919060010190611861565b5b50905061188a919061188e565b5090565b6118b091905b808211156118ac576000816000905550600101611894565b5090565b9056fea265627a7a72315820b96729302bd9f69dc6eaf49d37075fd1ac0bd0f57877310199bc6957ba78e42264736f6c63430005100032",
  "source": "// SPDX-License-Identifier: MIT\r\npragma solidity >=0.4.22 <0.9.0;\r\n\r\ncontract UserRegistration {\r\n    struct UserMasterRegistration {\r\n        string name;\r\n        uint256 age;\r\n        string state;\r\n        string district;\r\n        string dob;\r\n        string phoneNumber;\r\n        string profession;\r\n    }\r\n\r\n    string[] userMasterRegistrationIds;\r\n\r\n    mapping(string => UserMasterRegistration) public userMasterRegistrationList;\r\n\r\n    function saveUserRegistrationDetails(\r\n        string memory _userMasterId,\r\n        string memory _name,\r\n        uint256 _age,\r\n        string memory _state,\r\n        string memory _district,\r\n        string memory _dob,\r\n        string memory _phoneNumber,\r\n        string memory _profession\r\n    ) public {\r\n        userMasterRegistrationList[_userMasterId] = UserMasterRegistration(\r\n            _name,\r\n            _age,\r\n            _state,\r\n            _district,\r\n            _dob,\r\n            _phoneNumber,\r\n            _profession\r\n        );\r\n\r\n        userMasterRegistrationIds.push(_userMasterId);\r\n    }\r\n\r\n    function displayDetails(string memory _userMasterId)\r\n        public\r\n        view\r\n        returns (\r\n            string memory,\r\n            uint256,\r\n            string memory,\r\n            string memory,\r\n            string memory,\r\n            string memory,\r\n            string memory\r\n        )\r\n    {\r\n        return (\r\n            userMasterRegistrationList[_userMasterId].name,\r\n            userMasterRegistrationList[_userMasterId].age,\r\n            userMasterRegistrationList[_userMasterId].state,\r\n            userMasterRegistrationList[_userMasterId].district,\r\n            userMasterRegistrationList[_userMasterId].dob,\r\n            userMasterRegistrationList[_userMasterId].phoneNumber,\r\n            userMasterRegistrationList[_userMasterId].profession\r\n        );\r\n    }\r\n}\r\n",
  "sourcePath": "D:/IDEALABS-CODEBASE/HACKATHON-1/smart-contract/contracts/UserRegistration.sol",
  "compiler": {
    "name": "solc",
    "version": "0.5.16+commit.9c3226ce.Emscripten.clang"
  },
  "schemaVersion": "3.3.4",
  "updatedAt": "2021-03-27T06:40:38.596Z",
  "networkType": "ethereum",
  "devdoc": {
    "methods": {}
  },
  "userdoc": {
    "methods": {}
  }
}